{
  "_format": "hh-sol-artifact-1",
  "contractName": "Cypherpunk",
  "sourceName": "contracts/Cypherpunk.sol",
  "abi": [
    {
      "inputs": [
        {
          "internalType": "string",
          "name": "baseURI_",
          "type": "string"
        },
        {
          "internalType": "uint256",
          "name": "price_",
          "type": "uint256"
        }
      ],
      "stateMutability": "nonpayable",
      "type": "constructor"
    },
    {
      "anonymous": false,
      "inputs": [
        {
          "indexed": true,
          "internalType": "address",
          "name": "owner",
          "type": "address"
        },
        {
          "indexed": true,
          "internalType": "address",
          "name": "approved",
          "type": "address"
        },
        {
          "indexed": true,
          "internalType": "uint256",
          "name": "tokenId",
          "type": "uint256"
        }
      ],
      "name": "Approval",
      "type": "event"
    },
    {
      "anonymous": false,
      "inputs": [
        {
          "indexed": true,
          "internalType": "address",
          "name": "owner",
          "type": "address"
        },
        {
          "indexed": true,
          "internalType": "address",
          "name": "operator",
          "type": "address"
        },
        {
          "indexed": false,
          "internalType": "bool",
          "name": "approved",
          "type": "bool"
        }
      ],
      "name": "ApprovalForAll",
      "type": "event"
    },
    {
      "anonymous": false,
      "inputs": [
        {
          "indexed": true,
          "internalType": "address",
          "name": "previousOwner",
          "type": "address"
        },
        {
          "indexed": true,
          "internalType": "address",
          "name": "newOwner",
          "type": "address"
        }
      ],
      "name": "OwnershipTransferred",
      "type": "event"
    },
    {
      "anonymous": false,
      "inputs": [
        {
          "indexed": true,
          "internalType": "address",
          "name": "from",
          "type": "address"
        },
        {
          "indexed": true,
          "internalType": "address",
          "name": "to",
          "type": "address"
        },
        {
          "indexed": true,
          "internalType": "uint256",
          "name": "tokenId",
          "type": "uint256"
        }
      ],
      "name": "Transfer",
      "type": "event"
    },
    {
      "inputs": [],
      "name": "MAX_PUNKS",
      "outputs": [
        {
          "internalType": "uint256",
          "name": "",
          "type": "uint256"
        }
      ],
      "stateMutability": "view",
      "type": "function"
    },
    {
      "inputs": [
        {
          "internalType": "address",
          "name": "to",
          "type": "address"
        },
        {
          "internalType": "uint256",
          "name": "tokenId",
          "type": "uint256"
        }
      ],
      "name": "approve",
      "outputs": [],
      "stateMutability": "nonpayable",
      "type": "function"
    },
    {
      "inputs": [
        {
          "internalType": "address",
          "name": "owner",
          "type": "address"
        }
      ],
      "name": "balanceOf",
      "outputs": [
        {
          "internalType": "uint256",
          "name": "",
          "type": "uint256"
        }
      ],
      "stateMutability": "view",
      "type": "function"
    },
    {
      "inputs": [
        {
          "internalType": "uint256",
          "name": "tokenId",
          "type": "uint256"
        }
      ],
      "name": "getApproved",
      "outputs": [
        {
          "internalType": "address",
          "name": "",
          "type": "address"
        }
      ],
      "stateMutability": "view",
      "type": "function"
    },
    {
      "inputs": [
        {
          "internalType": "address",
          "name": "owner",
          "type": "address"
        },
        {
          "internalType": "address",
          "name": "operator",
          "type": "address"
        }
      ],
      "name": "isApprovedForAll",
      "outputs": [
        {
          "internalType": "bool",
          "name": "",
          "type": "bool"
        }
      ],
      "stateMutability": "view",
      "type": "function"
    },
    {
      "inputs": [],
      "name": "name",
      "outputs": [
        {
          "internalType": "string",
          "name": "",
          "type": "string"
        }
      ],
      "stateMutability": "view",
      "type": "function"
    },
    {
      "inputs": [],
      "name": "owner",
      "outputs": [
        {
          "internalType": "address",
          "name": "",
          "type": "address"
        }
      ],
      "stateMutability": "view",
      "type": "function"
    },
    {
      "inputs": [
        {
          "internalType": "uint256",
          "name": "tokenId",
          "type": "uint256"
        }
      ],
      "name": "ownerOf",
      "outputs": [
        {
          "internalType": "address",
          "name": "",
          "type": "address"
        }
      ],
      "stateMutability": "view",
      "type": "function"
    },
    {
      "inputs": [],
      "name": "price",
      "outputs": [
        {
          "internalType": "uint256",
          "name": "",
          "type": "uint256"
        }
      ],
      "stateMutability": "view",
      "type": "function"
    },
    {
      "inputs": [],
      "name": "renounceOwnership",
      "outputs": [],
      "stateMutability": "nonpayable",
      "type": "function"
    },
    {
      "inputs": [
        {
          "internalType": "address",
          "name": "from",
          "type": "address"
        },
        {
          "internalType": "address",
          "name": "to",
          "type": "address"
        },
        {
          "internalType": "uint256",
          "name": "tokenId",
          "type": "uint256"
        }
      ],
      "name": "safeTransferFrom",
      "outputs": [],
      "stateMutability": "nonpayable",
      "type": "function"
    },
    {
      "inputs": [
        {
          "internalType": "address",
          "name": "from",
          "type": "address"
        },
        {
          "internalType": "address",
          "name": "to",
          "type": "address"
        },
        {
          "internalType": "uint256",
          "name": "tokenId",
          "type": "uint256"
        },
        {
          "internalType": "bytes",
          "name": "data",
          "type": "bytes"
        }
      ],
      "name": "safeTransferFrom",
      "outputs": [],
      "stateMutability": "nonpayable",
      "type": "function"
    },
    {
      "inputs": [
        {
          "internalType": "address",
          "name": "operator",
          "type": "address"
        },
        {
          "internalType": "bool",
          "name": "approved",
          "type": "bool"
        }
      ],
      "name": "setApprovalForAll",
      "outputs": [],
      "stateMutability": "nonpayable",
      "type": "function"
    },
    {
      "inputs": [
        {
          "internalType": "bytes4",
          "name": "interfaceId",
          "type": "bytes4"
        }
      ],
      "name": "supportsInterface",
      "outputs": [
        {
          "internalType": "bool",
          "name": "",
          "type": "bool"
        }
      ],
      "stateMutability": "view",
      "type": "function"
    },
    {
      "inputs": [],
      "name": "symbol",
      "outputs": [
        {
          "internalType": "string",
          "name": "",
          "type": "string"
        }
      ],
      "stateMutability": "view",
      "type": "function"
    },
    {
      "inputs": [
        {
          "internalType": "uint256",
          "name": "tokenId",
          "type": "uint256"
        }
      ],
      "name": "tokenURI",
      "outputs": [
        {
          "internalType": "string",
          "name": "",
          "type": "string"
        }
      ],
      "stateMutability": "view",
      "type": "function"
    },
    {
      "inputs": [],
      "name": "total",
      "outputs": [
        {
          "internalType": "uint256",
          "name": "",
          "type": "uint256"
        }
      ],
      "stateMutability": "view",
      "type": "function"
    },
    {
      "inputs": [
        {
          "internalType": "address",
          "name": "from",
          "type": "address"
        },
        {
          "internalType": "address",
          "name": "to",
          "type": "address"
        },
        {
          "internalType": "uint256",
          "name": "tokenId",
          "type": "uint256"
        }
      ],
      "name": "transferFrom",
      "outputs": [],
      "stateMutability": "nonpayable",
      "type": "function"
    },
    {
      "inputs": [
        {
          "internalType": "address",
          "name": "newOwner",
          "type": "address"
        }
      ],
      "name": "transferOwnership",
      "outputs": [],
      "stateMutability": "nonpayable",
      "type": "function"
    }
  ],
  "bytecode": "0x608060405260006007553480156200001657600080fd5b5060405162002b1938038062002b1983398181016040528101906200003c91906200032b565b6040518060400160405280600a81526020017f43797068657270756e6b000000000000000000000000000000000000000000008152506040518060400160405280600a81526020017f43595048455250554e4b000000000000000000000000000000000000000000008152508160009080519060200190620000c0929190620001f2565b508060019080519060200190620000d9929190620001f2565b505050620000fc620000f06200012460201b60201c565b6200012c60201b60201c565b816008908051906020019062000114929190620001f2565b5080600981905550505062000519565b600033905090565b6000600660009054906101000a900473ffffffffffffffffffffffffffffffffffffffff16905081600660006101000a81548173ffffffffffffffffffffffffffffffffffffffff021916908373ffffffffffffffffffffffffffffffffffffffff1602179055508173ffffffffffffffffffffffffffffffffffffffff168173ffffffffffffffffffffffffffffffffffffffff167f8be0079c531659141344cd1fd0a4f28419497f9722a3daafe3b4186f6b6457e060405160405180910390a35050565b828054620002009062000424565b90600052602060002090601f01602090048101928262000224576000855562000270565b82601f106200023f57805160ff191683800117855562000270565b8280016001018555821562000270579182015b828111156200026f57825182559160200191906001019062000252565b5b5090506200027f919062000283565b5090565b5b808211156200029e57600081600090555060010162000284565b5090565b6000620002b9620002b384620003ae565b62000385565b905082815260208101848484011115620002d257600080fd5b620002df848285620003ee565b509392505050565b600082601f830112620002f957600080fd5b81516200030b848260208601620002a2565b91505092915050565b6000815190506200032581620004ff565b92915050565b600080604083850312156200033f57600080fd5b600083015167ffffffffffffffff8111156200035a57600080fd5b6200036885828601620002e7565b92505060206200037b8582860162000314565b9150509250929050565b600062000391620003a4565b90506200039f82826200045a565b919050565b6000604051905090565b600067ffffffffffffffff821115620003cc57620003cb620004bf565b5b620003d782620004ee565b9050602081019050919050565b6000819050919050565b60005b838110156200040e578082015181840152602081019050620003f1565b838111156200041e576000848401525b50505050565b600060028204905060018216806200043d57607f821691505b6020821081141562000454576200045362000490565b5b50919050565b6200046582620004ee565b810181811067ffffffffffffffff82111715620004875762000486620004bf565b5b80604052505050565b7f4e487b7100000000000000000000000000000000000000000000000000000000600052602260045260246000fd5b7f4e487b7100000000000000000000000000000000000000000000000000000000600052604160045260246000fd5b6000601f19601f8301169050919050565b6200050a81620003e4565b81146200051657600080fd5b50565b6125f080620005296000396000f3fe608060405234801561001057600080fd5b50600436106101215760003560e01c8063715018a6116100ad578063b88d4fde11610071578063b88d4fde146102f6578063c87b56dd14610312578063deb59b3b14610342578063e985e9c514610360578063f2fde38b1461039057610121565b8063715018a6146102765780638da5cb5b1461028057806395d89b411461029e578063a035b1fe146102bc578063a22cb465146102da57610121565b806323b872dd116100f457806323b872dd146101c05780632ddbd13a146101dc57806342842e0e146101fa5780636352211e1461021657806370a082311461024657610121565b806301ffc9a71461012657806306fdde0314610156578063081812fc14610174578063095ea7b3146101a4575b600080fd5b610140600480360381019061013b91906119a8565b6103ac565b60405161014d9190611cff565b60405180910390f35b61015e61048e565b60405161016b9190611d1a565b60405180910390f35b61018e600480360381019061018991906119fa565b610520565b60405161019b9190611c98565b60405180910390f35b6101be60048036038101906101b9919061196c565b610566565b005b6101da60048036038101906101d59190611866565b61067e565b005b6101e46106de565b6040516101f19190611e9c565b60405180910390f35b610214600480360381019061020f9190611866565b6106e4565b005b610230600480360381019061022b91906119fa565b610704565b60405161023d9190611c98565b60405180910390f35b610260600480360381019061025b9190611801565b6107b6565b60405161026d9190611e9c565b60405180910390f35b61027e61086e565b005b610288610882565b6040516102959190611c98565b60405180910390f35b6102a66108ac565b6040516102b39190611d1a565b60405180910390f35b6102c461093e565b6040516102d19190611e9c565b60405180910390f35b6102f460048036038101906102ef9190611930565b610944565b005b610310600480360381019061030b91906118b5565b61095a565b005b61032c600480360381019061032791906119fa565b6109bc565b6040516103399190611d1a565b60405180910390f35b61034a610a24565b6040516103579190611e9c565b60405180910390f35b61037a6004803603810190610375919061182a565b610a2a565b6040516103879190611cff565b60405180910390f35b6103aa60048036038101906103a59190611801565b610abe565b005b60007f80ac58cd000000000000000000000000000000000000000000000000000000007bffffffffffffffffffffffffffffffffffffffffffffffffffffffff1916827bffffffffffffffffffffffffffffffffffffffffffffffffffffffff1916148061047757507f5b5e139f000000000000000000000000000000000000000000000000000000007bffffffffffffffffffffffffffffffffffffffffffffffffffffffff1916827bffffffffffffffffffffffffffffffffffffffffffffffffffffffff1916145b80610487575061048682610b42565b5b9050919050565b60606000805461049d906120c1565b80601f01602080910402602001604051908101604052809291908181526020018280546104c9906120c1565b80156105165780601f106104eb57610100808354040283529160200191610516565b820191906000526020600020905b8154815290600101906020018083116104f957829003601f168201915b5050505050905090565b600061052b82610bac565b6004600083815260200190815260200160002060009054906101000a900473ffffffffffffffffffffffffffffffffffffffff169050919050565b600061057182610704565b90508073ffffffffffffffffffffffffffffffffffffffff168373ffffffffffffffffffffffffffffffffffffffff1614156105e2576040517f08c379a00000000000000000000000000000000000000000000000000000000081526004016105d990611e5c565b60405180910390fd5b8073ffffffffffffffffffffffffffffffffffffffff16610601610bf7565b73ffffffffffffffffffffffffffffffffffffffff161480610630575061062f8161062a610bf7565b610a2a565b5b61066f576040517f08c379a000000000000000000000000000000000000000000000000000000000815260040161066690611dfc565b60405180910390fd5b6106798383610bff565b505050565b61068f610689610bf7565b82610cb8565b6106ce576040517f08c379a00000000000000000000000000000000000000000000000000000000081526004016106c590611e7c565b60405180910390fd5b6106d9838383610d4d565b505050565b60075481565b6106ff8383836040518060200160405280600081525061095a565b505050565b6000806002600084815260200190815260200160002060009054906101000a900473ffffffffffffffffffffffffffffffffffffffff169050600073ffffffffffffffffffffffffffffffffffffffff168173ffffffffffffffffffffffffffffffffffffffff1614156107ad576040517f08c379a00000000000000000000000000000000000000000000000000000000081526004016107a490611e3c565b60405180910390fd5b80915050919050565b60008073ffffffffffffffffffffffffffffffffffffffff168273ffffffffffffffffffffffffffffffffffffffff161415610827576040517f08c379a000000000000000000000000000000000000000000000000000000000815260040161081e90611ddc565b60405180910390fd5b600360008373ffffffffffffffffffffffffffffffffffffffff1673ffffffffffffffffffffffffffffffffffffffff168152602001908152602001600020549050919050565b610876610fb4565b6108806000611032565b565b6000600660009054906101000a900473ffffffffffffffffffffffffffffffffffffffff16905090565b6060600180546108bb906120c1565b80601f01602080910402602001604051908101604052809291908181526020018280546108e7906120c1565b80156109345780601f1061090957610100808354040283529160200191610934565b820191906000526020600020905b81548152906001019060200180831161091757829003601f168201915b5050505050905090565b60095481565b61095661094f610bf7565b83836110f8565b5050565b61096b610965610bf7565b83610cb8565b6109aa576040517f08c379a00000000000000000000000000000000000000000000000000000000081526004016109a190611e7c565b60405180910390fd5b6109b684848484611265565b50505050565b60606109c782610bac565b60006109d16112c1565b905060008151116109f15760405180602001604052806000815250610a1c565b806109fb84611353565b604051602001610a0c929190611c74565b6040516020818303038152906040525b915050919050565b61271081565b6000600560008473ffffffffffffffffffffffffffffffffffffffff1673ffffffffffffffffffffffffffffffffffffffff16815260200190815260200160002060008373ffffffffffffffffffffffffffffffffffffffff1673ffffffffffffffffffffffffffffffffffffffff16815260200190815260200160002060009054906101000a900460ff16905092915050565b610ac6610fb4565b600073ffffffffffffffffffffffffffffffffffffffff168173ffffffffffffffffffffffffffffffffffffffff161415610b36576040517f08c379a0000000000000000000000000000000000000000000000000000000008152600401610b2d90611d5c565b60405180910390fd5b610b3f81611032565b50565b60007f01ffc9a7000000000000000000000000000000000000000000000000000000007bffffffffffffffffffffffffffffffffffffffffffffffffffffffff1916827bffffffffffffffffffffffffffffffffffffffffffffffffffffffff1916149050919050565b610bb581611500565b610bf4576040517f08c379a0000000000000000000000000000000000000000000000000000000008152600401610beb90611e3c565b60405180910390fd5b50565b600033905090565b816004600083815260200190815260200160002060006101000a81548173ffffffffffffffffffffffffffffffffffffffff021916908373ffffffffffffffffffffffffffffffffffffffff160217905550808273ffffffffffffffffffffffffffffffffffffffff16610c7283610704565b73ffffffffffffffffffffffffffffffffffffffff167f8c5be1e5ebec7d5bd14f71427d1e84f3dd0314c0f7b2291e5b200ac8c7c3b92560405160405180910390a45050565b600080610cc483610704565b90508073ffffffffffffffffffffffffffffffffffffffff168473ffffffffffffffffffffffffffffffffffffffff161480610d065750610d058185610a2a565b5b80610d4457508373ffffffffffffffffffffffffffffffffffffffff16610d2c84610520565b73ffffffffffffffffffffffffffffffffffffffff16145b91505092915050565b8273ffffffffffffffffffffffffffffffffffffffff16610d6d82610704565b73ffffffffffffffffffffffffffffffffffffffff1614610dc3576040517f08c379a0000000000000000000000000000000000000000000000000000000008152600401610dba90611d7c565b60405180910390fd5b600073ffffffffffffffffffffffffffffffffffffffff168273ffffffffffffffffffffffffffffffffffffffff161415610e33576040517f08c379a0000000000000000000000000000000000000000000000000000000008152600401610e2a90611d9c565b60405180910390fd5b610e3e83838361156c565b610e49600082610bff565b6001600360008573ffffffffffffffffffffffffffffffffffffffff1673ffffffffffffffffffffffffffffffffffffffff1681526020019081526020016000206000828254610e999190611fd7565b925050819055506001600360008473ffffffffffffffffffffffffffffffffffffffff1673ffffffffffffffffffffffffffffffffffffffff1681526020019081526020016000206000828254610ef09190611f50565b92505081905550816002600083815260200190815260200160002060006101000a81548173ffffffffffffffffffffffffffffffffffffffff021916908373ffffffffffffffffffffffffffffffffffffffff160217905550808273ffffffffffffffffffffffffffffffffffffffff168473ffffffffffffffffffffffffffffffffffffffff167fddf252ad1be2c89b69c2b068fc378daa952ba7f163c4a11628f55a4df523b3ef60405160405180910390a4610faf838383611571565b505050565b610fbc610bf7565b73ffffffffffffffffffffffffffffffffffffffff16610fda610882565b73ffffffffffffffffffffffffffffffffffffffff1614611030576040517f08c379a000000000000000000000000000000000000000000000000000000000815260040161102790611e1c565b60405180910390fd5b565b6000600660009054906101000a900473ffffffffffffffffffffffffffffffffffffffff16905081600660006101000a81548173ffffffffffffffffffffffffffffffffffffffff021916908373ffffffffffffffffffffffffffffffffffffffff1602179055508173ffffffffffffffffffffffffffffffffffffffff168173ffffffffffffffffffffffffffffffffffffffff167f8be0079c531659141344cd1fd0a4f28419497f9722a3daafe3b4186f6b6457e060405160405180910390a35050565b8173ffffffffffffffffffffffffffffffffffffffff168373ffffffffffffffffffffffffffffffffffffffff161415611167576040517f08c379a000000000000000000000000000000000000000000000000000000000815260040161115e90611dbc565b60405180910390fd5b80600560008573ffffffffffffffffffffffffffffffffffffffff1673ffffffffffffffffffffffffffffffffffffffff16815260200190815260200160002060008473ffffffffffffffffffffffffffffffffffffffff1673ffffffffffffffffffffffffffffffffffffffff16815260200190815260200160002060006101000a81548160ff0219169083151502179055508173ffffffffffffffffffffffffffffffffffffffff168373ffffffffffffffffffffffffffffffffffffffff167f17307eab39ab6107e8899845ad3d59bd9653f200f220920489ca2b5937696c31836040516112589190611cff565b60405180910390a3505050565b611270848484610d4d565b61127c84848484611576565b6112bb576040517f08c379a00000000000000000000000000000000000000000000000000000000081526004016112b290611d3c565b60405180910390fd5b50505050565b6060600880546112d0906120c1565b80601f01602080910402602001604051908101604052809291908181526020018280546112fc906120c1565b80156113495780601f1061131e57610100808354040283529160200191611349565b820191906000526020600020905b81548152906001019060200180831161132c57829003601f168201915b5050505050905090565b6060600082141561139b576040518060400160405280600181526020017f300000000000000000000000000000000000000000000000000000000000000081525090506114fb565b600082905060005b600082146113cd5780806113b690612124565b915050600a826113c69190611fa6565b91506113a3565b60008167ffffffffffffffff81111561140f577f4e487b7100000000000000000000000000000000000000000000000000000000600052604160045260246000fd5b6040519080825280601f01601f1916602001820160405280156114415781602001600182028036833780820191505090505b5090505b600085146114f45760018261145a9190611fd7565b9150600a85611469919061216d565b60306114759190611f50565b60f81b8183815181106114b1577f4e487b7100000000000000000000000000000000000000000000000000000000600052603260045260246000fd5b60200101907effffffffffffffffffffffffffffffffffffffffffffffffffffffffffffff1916908160001a905350600a856114ed9190611fa6565b9450611445565b8093505050505b919050565b60008073ffffffffffffffffffffffffffffffffffffffff166002600084815260200190815260200160002060009054906101000a900473ffffffffffffffffffffffffffffffffffffffff1673ffffffffffffffffffffffffffffffffffffffff1614159050919050565b505050565b505050565b60006115978473ffffffffffffffffffffffffffffffffffffffff1661170d565b15611700578373ffffffffffffffffffffffffffffffffffffffff1663150b7a026115c0610bf7565b8786866040518563ffffffff1660e01b81526004016115e29493929190611cb3565b602060405180830381600087803b1580156115fc57600080fd5b505af192505050801561162d57506040513d601f19601f8201168201806040525081019061162a91906119d1565b60015b6116b0573d806000811461165d576040519150601f19603f3d011682016040523d82523d6000602084013e611662565b606091505b506000815114156116a8576040517f08c379a000000000000000000000000000000000000000000000000000000000815260040161169f90611d3c565b60405180910390fd5b805181602001fd5b63150b7a0260e01b7bffffffffffffffffffffffffffffffffffffffffffffffffffffffff1916817bffffffffffffffffffffffffffffffffffffffffffffffffffffffff191614915050611705565b600190505b949350505050565b6000808273ffffffffffffffffffffffffffffffffffffffff163b119050919050565b600061174361173e84611edc565b611eb7565b90508281526020810184848401111561175b57600080fd5b61176684828561207f565b509392505050565b60008135905061177d8161255e565b92915050565b60008135905061179281612575565b92915050565b6000813590506117a78161258c565b92915050565b6000815190506117bc8161258c565b92915050565b600082601f8301126117d357600080fd5b81356117e3848260208601611730565b91505092915050565b6000813590506117fb816125a3565b92915050565b60006020828403121561181357600080fd5b60006118218482850161176e565b91505092915050565b6000806040838503121561183d57600080fd5b600061184b8582860161176e565b925050602061185c8582860161176e565b9150509250929050565b60008060006060848603121561187b57600080fd5b60006118898682870161176e565b935050602061189a8682870161176e565b92505060406118ab868287016117ec565b9150509250925092565b600080600080608085870312156118cb57600080fd5b60006118d98782880161176e565b94505060206118ea8782880161176e565b93505060406118fb878288016117ec565b925050606085013567ffffffffffffffff81111561191857600080fd5b611924878288016117c2565b91505092959194509250565b6000806040838503121561194357600080fd5b60006119518582860161176e565b925050602061196285828601611783565b9150509250929050565b6000806040838503121561197f57600080fd5b600061198d8582860161176e565b925050602061199e858286016117ec565b9150509250929050565b6000602082840312156119ba57600080fd5b60006119c884828501611798565b91505092915050565b6000602082840312156119e357600080fd5b60006119f1848285016117ad565b91505092915050565b600060208284031215611a0c57600080fd5b6000611a1a848285016117ec565b91505092915050565b611a2c8161200b565b82525050565b611a3b8161201d565b82525050565b6000611a4c82611f0d565b611a568185611f23565b9350611a6681856020860161208e565b611a6f8161225a565b840191505092915050565b6000611a8582611f18565b611a8f8185611f34565b9350611a9f81856020860161208e565b611aa88161225a565b840191505092915050565b6000611abe82611f18565b611ac88185611f45565b9350611ad881856020860161208e565b80840191505092915050565b6000611af1603283611f34565b9150611afc8261226b565b604082019050919050565b6000611b14602683611f34565b9150611b1f826122ba565b604082019050919050565b6000611b37602583611f34565b9150611b4282612309565b604082019050919050565b6000611b5a602483611f34565b9150611b6582612358565b604082019050919050565b6000611b7d601983611f34565b9150611b88826123a7565b602082019050919050565b6000611ba0602983611f34565b9150611bab826123d0565b604082019050919050565b6000611bc3603e83611f34565b9150611bce8261241f565b604082019050919050565b6000611be6602083611f34565b9150611bf18261246e565b602082019050919050565b6000611c09601883611f34565b9150611c1482612497565b602082019050919050565b6000611c2c602183611f34565b9150611c37826124c0565b604082019050919050565b6000611c4f602e83611f34565b9150611c5a8261250f565b604082019050919050565b611c6e81612075565b82525050565b6000611c808285611ab3565b9150611c8c8284611ab3565b91508190509392505050565b6000602082019050611cad6000830184611a23565b92915050565b6000608082019050611cc86000830187611a23565b611cd56020830186611a23565b611ce26040830185611c65565b8181036060830152611cf48184611a41565b905095945050505050565b6000602082019050611d146000830184611a32565b92915050565b60006020820190508181036000830152611d348184611a7a565b905092915050565b60006020820190508181036000830152611d5581611ae4565b9050919050565b60006020820190508181036000830152611d7581611b07565b9050919050565b60006020820190508181036000830152611d9581611b2a565b9050919050565b60006020820190508181036000830152611db581611b4d565b9050919050565b60006020820190508181036000830152611dd581611b70565b9050919050565b60006020820190508181036000830152611df581611b93565b9050919050565b60006020820190508181036000830152611e1581611bb6565b9050919050565b60006020820190508181036000830152611e3581611bd9565b9050919050565b60006020820190508181036000830152611e5581611bfc565b9050919050565b60006020820190508181036000830152611e7581611c1f565b9050919050565b60006020820190508181036000830152611e9581611c42565b9050919050565b6000602082019050611eb16000830184611c65565b92915050565b6000611ec1611ed2565b9050611ecd82826120f3565b919050565b6000604051905090565b600067ffffffffffffffff821115611ef757611ef661222b565b5b611f008261225a565b9050602081019050919050565b600081519050919050565b600081519050919050565b600082825260208201905092915050565b600082825260208201905092915050565b600081905092915050565b6000611f5b82612075565b9150611f6683612075565b9250827fffffffffffffffffffffffffffffffffffffffffffffffffffffffffffffffff03821115611f9b57611f9a61219e565b5b828201905092915050565b6000611fb182612075565b9150611fbc83612075565b925082611fcc57611fcb6121cd565b5b828204905092915050565b6000611fe282612075565b9150611fed83612075565b92508282101561200057611fff61219e565b5b828203905092915050565b600061201682612055565b9050919050565b60008115159050919050565b60007fffffffff0000000000000000000000000000000000000000000000000000000082169050919050565b600073ffffffffffffffffffffffffffffffffffffffff82169050919050565b6000819050919050565b82818337600083830152505050565b60005b838110156120ac578082015181840152602081019050612091565b838111156120bb576000848401525b50505050565b600060028204905060018216806120d957607f821691505b602082108114156120ed576120ec6121fc565b5b50919050565b6120fc8261225a565b810181811067ffffffffffffffff8211171561211b5761211a61222b565b5b80604052505050565b600061212f82612075565b91507fffffffffffffffffffffffffffffffffffffffffffffffffffffffffffffffff8214156121625761216161219e565b5b600182019050919050565b600061217882612075565b915061218383612075565b925082612193576121926121cd565b5b828206905092915050565b7f4e487b7100000000000000000000000000000000000000000000000000000000600052601160045260246000fd5b7f4e487b7100000000000000000000000000000000000000000000000000000000600052601260045260246000fd5b7f4e487b7100000000000000000000000000000000000000000000000000000000600052602260045260246000fd5b7f4e487b7100000000000000000000000000000000000000000000000000000000600052604160045260246000fd5b6000601f19601f8301169050919050565b7f4552433732313a207472616e7366657220746f206e6f6e20455243373231526560008201527f63656976657220696d706c656d656e7465720000000000000000000000000000602082015250565b7f4f776e61626c653a206e6577206f776e657220697320746865207a65726f206160008201527f6464726573730000000000000000000000000000000000000000000000000000602082015250565b7f4552433732313a207472616e736665722066726f6d20696e636f72726563742060008201527f6f776e6572000000000000000000000000000000000000000000000000000000602082015250565b7f4552433732313a207472616e7366657220746f20746865207a65726f2061646460008201527f7265737300000000000000000000000000000000000000000000000000000000602082015250565b7f4552433732313a20617070726f766520746f2063616c6c657200000000000000600082015250565b7f4552433732313a2061646472657373207a65726f206973206e6f74206120766160008201527f6c6964206f776e65720000000000000000000000000000000000000000000000602082015250565b7f4552433732313a20617070726f76652063616c6c6572206973206e6f7420746f60008201527f6b656e206f776e6572206e6f7220617070726f76656420666f7220616c6c0000602082015250565b7f4f776e61626c653a2063616c6c6572206973206e6f7420746865206f776e6572600082015250565b7f4552433732313a20696e76616c696420746f6b656e2049440000000000000000600082015250565b7f4552433732313a20617070726f76616c20746f2063757272656e74206f776e6560008201527f7200000000000000000000000000000000000000000000000000000000000000602082015250565b7f4552433732313a2063616c6c6572206973206e6f7420746f6b656e206f776e6560008201527f72206e6f7220617070726f766564000000000000000000000000000000000000602082015250565b6125678161200b565b811461257257600080fd5b50565b61257e8161201d565b811461258957600080fd5b50565b61259581612029565b81146125a057600080fd5b50565b6125ac81612075565b81146125b757600080fd5b5056fea26469706673582212209a7b284d823fa63fc22a1f4558046080c1e35799e9756d60badeef2f429a9d9664736f6c63430008040033",
  "linkReferences": {},
  "deployedLinkReferences": {}
}