{
  "_format": "hh-sol-artifact-1",
  "contractName": "Cypherpunk",
  "sourceName": "contracts/Cypherpunk.sol",
  "abi": [
    {
      "inputs": [
        {
          "internalType": "string",
          "name": "baseURI_",
          "type": "string"
        },
        {
          "internalType": "uint256",
          "name": "price_",
          "type": "uint256"
        }
      ],
      "stateMutability": "nonpayable",
      "type": "constructor"
    },
    {
      "anonymous": false,
      "inputs": [
        {
          "indexed": true,
          "internalType": "address",
          "name": "owner",
          "type": "address"
        },
        {
          "indexed": true,
          "internalType": "address",
          "name": "approved",
          "type": "address"
        },
        {
          "indexed": true,
          "internalType": "uint256",
          "name": "tokenId",
          "type": "uint256"
        }
      ],
      "name": "Approval",
      "type": "event"
    },
    {
      "anonymous": false,
      "inputs": [
        {
          "indexed": true,
          "internalType": "address",
          "name": "owner",
          "type": "address"
        },
        {
          "indexed": true,
          "internalType": "address",
          "name": "operator",
          "type": "address"
        },
        {
          "indexed": false,
          "internalType": "bool",
          "name": "approved",
          "type": "bool"
        }
      ],
      "name": "ApprovalForAll",
      "type": "event"
    },
    {
      "anonymous": false,
      "inputs": [
        {
          "indexed": true,
          "internalType": "address",
          "name": "previousOwner",
          "type": "address"
        },
        {
          "indexed": true,
          "internalType": "address",
          "name": "newOwner",
          "type": "address"
        }
      ],
      "name": "OwnershipTransferred",
      "type": "event"
    },
    {
      "anonymous": false,
      "inputs": [
        {
          "indexed": true,
          "internalType": "address",
          "name": "from",
          "type": "address"
        },
        {
          "indexed": true,
          "internalType": "address",
          "name": "to",
          "type": "address"
        },
        {
          "indexed": true,
          "internalType": "uint256",
          "name": "tokenId",
          "type": "uint256"
        }
      ],
      "name": "Transfer",
      "type": "event"
    },
    {
      "inputs": [],
      "name": "MAX_PUNKS",
      "outputs": [
        {
          "internalType": "uint256",
          "name": "",
          "type": "uint256"
        }
      ],
      "stateMutability": "view",
      "type": "function"
    },
    {
      "inputs": [
        {
          "internalType": "address",
          "name": "to",
          "type": "address"
        },
        {
          "internalType": "uint256",
          "name": "tokenId",
          "type": "uint256"
        }
      ],
      "name": "approve",
      "outputs": [],
      "stateMutability": "nonpayable",
      "type": "function"
    },
    {
      "inputs": [
        {
          "internalType": "address",
          "name": "owner",
          "type": "address"
        }
      ],
      "name": "balanceOf",
      "outputs": [
        {
          "internalType": "uint256",
          "name": "",
          "type": "uint256"
        }
      ],
      "stateMutability": "view",
      "type": "function"
    },
    {
      "inputs": [
        {
          "internalType": "uint256",
          "name": "tokenId",
          "type": "uint256"
        }
      ],
      "name": "getApproved",
      "outputs": [
        {
          "internalType": "address",
          "name": "",
          "type": "address"
        }
      ],
      "stateMutability": "view",
      "type": "function"
    },
    {
      "inputs": [
        {
          "internalType": "address",
          "name": "owner",
          "type": "address"
        },
        {
          "internalType": "address",
          "name": "operator",
          "type": "address"
        }
      ],
      "name": "isApprovedForAll",
      "outputs": [
        {
          "internalType": "bool",
          "name": "",
          "type": "bool"
        }
      ],
      "stateMutability": "view",
      "type": "function"
    },
    {
      "inputs": [],
      "name": "mint",
      "outputs": [],
      "stateMutability": "nonpayable",
      "type": "function"
    },
    {
      "inputs": [],
      "name": "name",
      "outputs": [
        {
          "internalType": "string",
          "name": "",
          "type": "string"
        }
      ],
      "stateMutability": "view",
      "type": "function"
    },
    {
      "inputs": [],
      "name": "owner",
      "outputs": [
        {
          "internalType": "address",
          "name": "",
          "type": "address"
        }
      ],
      "stateMutability": "view",
      "type": "function"
    },
    {
      "inputs": [
        {
          "internalType": "uint256",
          "name": "tokenId",
          "type": "uint256"
        }
      ],
      "name": "ownerOf",
      "outputs": [
        {
          "internalType": "address",
          "name": "",
          "type": "address"
        }
      ],
      "stateMutability": "view",
      "type": "function"
    },
    {
      "inputs": [],
      "name": "price",
      "outputs": [
        {
          "internalType": "uint256",
          "name": "",
          "type": "uint256"
        }
      ],
      "stateMutability": "view",
      "type": "function"
    },
    {
      "inputs": [],
      "name": "renounceOwnership",
      "outputs": [],
      "stateMutability": "nonpayable",
      "type": "function"
    },
    {
      "inputs": [
        {
          "internalType": "address",
          "name": "from",
          "type": "address"
        },
        {
          "internalType": "address",
          "name": "to",
          "type": "address"
        },
        {
          "internalType": "uint256",
          "name": "tokenId",
          "type": "uint256"
        }
      ],
      "name": "safeTransferFrom",
      "outputs": [],
      "stateMutability": "nonpayable",
      "type": "function"
    },
    {
      "inputs": [
        {
          "internalType": "address",
          "name": "from",
          "type": "address"
        },
        {
          "internalType": "address",
          "name": "to",
          "type": "address"
        },
        {
          "internalType": "uint256",
          "name": "tokenId",
          "type": "uint256"
        },
        {
          "internalType": "bytes",
          "name": "data",
          "type": "bytes"
        }
      ],
      "name": "safeTransferFrom",
      "outputs": [],
      "stateMutability": "nonpayable",
      "type": "function"
    },
    {
      "inputs": [
        {
          "internalType": "address",
          "name": "operator",
          "type": "address"
        },
        {
          "internalType": "bool",
          "name": "approved",
          "type": "bool"
        }
      ],
      "name": "setApprovalForAll",
      "outputs": [],
      "stateMutability": "nonpayable",
      "type": "function"
    },
    {
      "inputs": [
        {
          "internalType": "bytes4",
          "name": "interfaceId",
          "type": "bytes4"
        }
      ],
      "name": "supportsInterface",
      "outputs": [
        {
          "internalType": "bool",
          "name": "",
          "type": "bool"
        }
      ],
      "stateMutability": "view",
      "type": "function"
    },
    {
      "inputs": [],
      "name": "symbol",
      "outputs": [
        {
          "internalType": "string",
          "name": "",
          "type": "string"
        }
      ],
      "stateMutability": "view",
      "type": "function"
    },
    {
      "inputs": [
        {
          "internalType": "uint256",
          "name": "tokenId",
          "type": "uint256"
        }
      ],
      "name": "tokenURI",
      "outputs": [
        {
          "internalType": "string",
          "name": "",
          "type": "string"
        }
      ],
      "stateMutability": "view",
      "type": "function"
    },
    {
      "inputs": [],
      "name": "total",
      "outputs": [
        {
          "internalType": "uint256",
          "name": "",
          "type": "uint256"
        }
      ],
      "stateMutability": "view",
      "type": "function"
    },
    {
      "inputs": [
        {
          "internalType": "address",
          "name": "from",
          "type": "address"
        },
        {
          "internalType": "address",
          "name": "to",
          "type": "address"
        },
        {
          "internalType": "uint256",
          "name": "tokenId",
          "type": "uint256"
        }
      ],
      "name": "transferFrom",
      "outputs": [],
      "stateMutability": "nonpayable",
      "type": "function"
    },
    {
      "inputs": [
        {
          "internalType": "address",
          "name": "newOwner",
          "type": "address"
        }
      ],
      "name": "transferOwnership",
      "outputs": [],
      "stateMutability": "nonpayable",
      "type": "function"
    }
  ],
  "bytecode": "0x608060405260006007553480156200001657600080fd5b506040516200303f3803806200303f83398181016040528101906200003c91906200032b565b6040518060400160405280600a81526020017f43797068657270756e6b000000000000000000000000000000000000000000008152506040518060400160405280600a81526020017f43595048455250554e4b000000000000000000000000000000000000000000008152508160009080519060200190620000c0929190620001f2565b508060019080519060200190620000d9929190620001f2565b505050620000fc620000f06200012460201b60201c565b6200012c60201b60201c565b816008908051906020019062000114929190620001f2565b5080600981905550505062000519565b600033905090565b6000600660009054906101000a900473ffffffffffffffffffffffffffffffffffffffff16905081600660006101000a81548173ffffffffffffffffffffffffffffffffffffffff021916908373ffffffffffffffffffffffffffffffffffffffff1602179055508173ffffffffffffffffffffffffffffffffffffffff168173ffffffffffffffffffffffffffffffffffffffff167f8be0079c531659141344cd1fd0a4f28419497f9722a3daafe3b4186f6b6457e060405160405180910390a35050565b828054620002009062000424565b90600052602060002090601f01602090048101928262000224576000855562000270565b82601f106200023f57805160ff191683800117855562000270565b8280016001018555821562000270579182015b828111156200026f57825182559160200191906001019062000252565b5b5090506200027f919062000283565b5090565b5b808211156200029e57600081600090555060010162000284565b5090565b6000620002b9620002b384620003ae565b62000385565b905082815260208101848484011115620002d257600080fd5b620002df848285620003ee565b509392505050565b600082601f830112620002f957600080fd5b81516200030b848260208601620002a2565b91505092915050565b6000815190506200032581620004ff565b92915050565b600080604083850312156200033f57600080fd5b600083015167ffffffffffffffff8111156200035a57600080fd5b6200036885828601620002e7565b92505060206200037b8582860162000314565b9150509250929050565b600062000391620003a4565b90506200039f82826200045a565b919050565b6000604051905090565b600067ffffffffffffffff821115620003cc57620003cb620004bf565b5b620003d782620004ee565b9050602081019050919050565b6000819050919050565b60005b838110156200040e578082015181840152602081019050620003f1565b838111156200041e576000848401525b50505050565b600060028204905060018216806200043d57607f821691505b6020821081141562000454576200045362000490565b5b50919050565b6200046582620004ee565b810181811067ffffffffffffffff82111715620004875762000486620004bf565b5b80604052505050565b7f4e487b7100000000000000000000000000000000000000000000000000000000600052602260045260246000fd5b7f4e487b7100000000000000000000000000000000000000000000000000000000600052604160045260246000fd5b6000601f19601f8301169050919050565b6200050a81620003e4565b81146200051657600080fd5b50565b612b1680620005296000396000f3fe608060405234801561001057600080fd5b506004361061012c5760003560e01c8063715018a6116100ad578063b88d4fde11610071578063b88d4fde1461030b578063c87b56dd14610327578063deb59b3b14610357578063e985e9c514610375578063f2fde38b146103a55761012c565b8063715018a61461028b5780638da5cb5b1461029557806395d89b41146102b3578063a035b1fe146102d1578063a22cb465146102ef5761012c565b806323b872dd116100f457806323b872dd146101d55780632ddbd13a146101f157806342842e0e1461020f5780636352211e1461022b57806370a082311461025b5761012c565b806301ffc9a71461013157806306fdde0314610161578063081812fc1461017f578063095ea7b3146101af5780631249c58b146101cb575b600080fd5b61014b60048036038101906101469190611d1e565b6103c1565b6040516101589190612101565b60405180910390f35b6101696104a3565b604051610176919061211c565b60405180910390f35b61019960048036038101906101949190611d70565b610535565b6040516101a6919061209a565b60405180910390f35b6101c960048036038101906101c49190611ce2565b61057b565b005b6101d3610693565b005b6101ef60048036038101906101ea9190611bdc565b610719565b005b6101f9610779565b604051610206919061231e565b60405180910390f35b61022960048036038101906102249190611bdc565b61077f565b005b61024560048036038101906102409190611d70565b61079f565b604051610252919061209a565b60405180910390f35b61027560048036038101906102709190611b77565b610851565b604051610282919061231e565b60405180910390f35b610293610909565b005b61029d61091d565b6040516102aa919061209a565b60405180910390f35b6102bb610947565b6040516102c8919061211c565b60405180910390f35b6102d96109d9565b6040516102e6919061231e565b60405180910390f35b61030960048036038101906103049190611ca6565b6109df565b005b61032560048036038101906103209190611c2b565b6109f5565b005b610341600480360381019061033c9190611d70565b610a57565b60405161034e919061211c565b60405180910390f35b61035f610abf565b60405161036c919061231e565b60405180910390f35b61038f600480360381019061038a9190611ba0565b610ac5565b60405161039c9190612101565b60405180910390f35b6103bf60048036038101906103ba9190611b77565b610b59565b005b60007f80ac58cd000000000000000000000000000000000000000000000000000000007bffffffffffffffffffffffffffffffffffffffffffffffffffffffff1916827bffffffffffffffffffffffffffffffffffffffffffffffffffffffff1916148061048c57507f5b5e139f000000000000000000000000000000000000000000000000000000007bffffffffffffffffffffffffffffffffffffffffffffffffffffffff1916827bffffffffffffffffffffffffffffffffffffffffffffffffffffffff1916145b8061049c575061049b82610bdd565b5b9050919050565b6060600080546104b290612543565b80601f01602080910402602001604051908101604052809291908181526020018280546104de90612543565b801561052b5780601f106105005761010080835404028352916020019161052b565b820191906000526020600020905b81548152906001019060200180831161050e57829003601f168201915b5050505050905090565b600061054082610c47565b6004600083815260200190815260200160002060009054906101000a900473ffffffffffffffffffffffffffffffffffffffff169050919050565b60006105868261079f565b90508073ffffffffffffffffffffffffffffffffffffffff168373ffffffffffffffffffffffffffffffffffffffff1614156105f7576040517f08c379a00000000000000000000000000000000000000000000000000000000081526004016105ee906122de565b60405180910390fd5b8073ffffffffffffffffffffffffffffffffffffffff16610616610c92565b73ffffffffffffffffffffffffffffffffffffffff16148061064557506106448161063f610c92565b610ac5565b5b610684576040517f08c379a000000000000000000000000000000000000000000000000000000000815260040161067b9061223e565b60405180910390fd5b61068e8383610c9a565b505050565b612710600754106106d9576040517f08c379a00000000000000000000000000000000000000000000000000000000081526004016106d09061215e565b60405180910390fd5b6106f53360075460405180602001604052806000815250610d53565b60016007600082825461070891906123d2565b92505081905550610717610dae565b565b61072a610724610c92565b82610e54565b610769576040517f08c379a0000000000000000000000000000000000000000000000000000000008152600401610760906122fe565b60405180910390fd5b610774838383610ee9565b505050565b60075481565b61079a838383604051806020016040528060008152506109f5565b505050565b6000806002600084815260200190815260200160002060009054906101000a900473ffffffffffffffffffffffffffffffffffffffff169050600073ffffffffffffffffffffffffffffffffffffffff168173ffffffffffffffffffffffffffffffffffffffff161415610848576040517f08c379a000000000000000000000000000000000000000000000000000000000815260040161083f906122be565b60405180910390fd5b80915050919050565b60008073ffffffffffffffffffffffffffffffffffffffff168273ffffffffffffffffffffffffffffffffffffffff1614156108c2576040517f08c379a00000000000000000000000000000000000000000000000000000000081526004016108b99061221e565b60405180910390fd5b600360008373ffffffffffffffffffffffffffffffffffffffff1673ffffffffffffffffffffffffffffffffffffffff168152602001908152602001600020549050919050565b610911611150565b61091b60006111ce565b565b6000600660009054906101000a900473ffffffffffffffffffffffffffffffffffffffff16905090565b60606001805461095690612543565b80601f016020809104026020016040519081016040528092919081815260200182805461098290612543565b80156109cf5780601f106109a4576101008083540402835291602001916109cf565b820191906000526020600020905b8154815290600101906020018083116109b257829003601f168201915b5050505050905090565b60095481565b6109f16109ea610c92565b8383611294565b5050565b610a06610a00610c92565b83610e54565b610a45576040517f08c379a0000000000000000000000000000000000000000000000000000000008152600401610a3c906122fe565b60405180910390fd5b610a5184848484611401565b50505050565b6060610a6282610c47565b6000610a6c61145d565b90506000815111610a8c5760405180602001604052806000815250610ab7565b80610a96846114ef565b604051602001610aa7929190612076565b6040516020818303038152906040525b915050919050565b61271081565b6000600560008473ffffffffffffffffffffffffffffffffffffffff1673ffffffffffffffffffffffffffffffffffffffff16815260200190815260200160002060008373ffffffffffffffffffffffffffffffffffffffff1673ffffffffffffffffffffffffffffffffffffffff16815260200190815260200160002060009054906101000a900460ff16905092915050565b610b61611150565b600073ffffffffffffffffffffffffffffffffffffffff168173ffffffffffffffffffffffffffffffffffffffff161415610bd1576040517f08c379a0000000000000000000000000000000000000000000000000000000008152600401610bc89061217e565b60405180910390fd5b610bda816111ce565b50565b60007f01ffc9a7000000000000000000000000000000000000000000000000000000007bffffffffffffffffffffffffffffffffffffffffffffffffffffffff1916827bffffffffffffffffffffffffffffffffffffffffffffffffffffffff1916149050919050565b610c508161169c565b610c8f576040517f08c379a0000000000000000000000000000000000000000000000000000000008152600401610c86906122be565b60405180910390fd5b50565b600033905090565b816004600083815260200190815260200160002060006101000a81548173ffffffffffffffffffffffffffffffffffffffff021916908373ffffffffffffffffffffffffffffffffffffffff160217905550808273ffffffffffffffffffffffffffffffffffffffff16610d0d8361079f565b73ffffffffffffffffffffffffffffffffffffffff167f8c5be1e5ebec7d5bd14f71427d1e84f3dd0314c0f7b2291e5b200ac8c7c3b92560405160405180910390a45050565b610d5d8383611708565b610d6a60008484846118e2565b610da9576040517f08c379a0000000000000000000000000000000000000000000000000000000008152600401610da09061213e565b60405180910390fd5b505050565b600954341015610df3576040517f08c379a0000000000000000000000000000000000000000000000000000000008152600401610dea9061227e565b60405180910390fd5b600954341115610e52573373ffffffffffffffffffffffffffffffffffffffff166108fc60095434610e259190612459565b9081150290604051600060405180830381858888f19350505050158015610e50573d6000803e3d6000fd5b505b565b600080610e608361079f565b90508073ffffffffffffffffffffffffffffffffffffffff168473ffffffffffffffffffffffffffffffffffffffff161480610ea25750610ea18185610ac5565b5b80610ee057508373ffffffffffffffffffffffffffffffffffffffff16610ec884610535565b73ffffffffffffffffffffffffffffffffffffffff16145b91505092915050565b8273ffffffffffffffffffffffffffffffffffffffff16610f098261079f565b73ffffffffffffffffffffffffffffffffffffffff1614610f5f576040517f08c379a0000000000000000000000000000000000000000000000000000000008152600401610f569061219e565b60405180910390fd5b600073ffffffffffffffffffffffffffffffffffffffff168273ffffffffffffffffffffffffffffffffffffffff161415610fcf576040517f08c379a0000000000000000000000000000000000000000000000000000000008152600401610fc6906121de565b60405180910390fd5b610fda838383611a79565b610fe5600082610c9a565b6001600360008573ffffffffffffffffffffffffffffffffffffffff1673ffffffffffffffffffffffffffffffffffffffff16815260200190815260200160002060008282546110359190612459565b925050819055506001600360008473ffffffffffffffffffffffffffffffffffffffff1673ffffffffffffffffffffffffffffffffffffffff168152602001908152602001600020600082825461108c91906123d2565b92505081905550816002600083815260200190815260200160002060006101000a81548173ffffffffffffffffffffffffffffffffffffffff021916908373ffffffffffffffffffffffffffffffffffffffff160217905550808273ffffffffffffffffffffffffffffffffffffffff168473ffffffffffffffffffffffffffffffffffffffff167fddf252ad1be2c89b69c2b068fc378daa952ba7f163c4a11628f55a4df523b3ef60405160405180910390a461114b838383611a7e565b505050565b611158610c92565b73ffffffffffffffffffffffffffffffffffffffff1661117661091d565b73ffffffffffffffffffffffffffffffffffffffff16146111cc576040517f08c379a00000000000000000000000000000000000000000000000000000000081526004016111c39061229e565b60405180910390fd5b565b6000600660009054906101000a900473ffffffffffffffffffffffffffffffffffffffff16905081600660006101000a81548173ffffffffffffffffffffffffffffffffffffffff021916908373ffffffffffffffffffffffffffffffffffffffff1602179055508173ffffffffffffffffffffffffffffffffffffffff168173ffffffffffffffffffffffffffffffffffffffff167f8be0079c531659141344cd1fd0a4f28419497f9722a3daafe3b4186f6b6457e060405160405180910390a35050565b8173ffffffffffffffffffffffffffffffffffffffff168373ffffffffffffffffffffffffffffffffffffffff161415611303576040517f08c379a00000000000000000000000000000000000000000000000000000000081526004016112fa906121fe565b60405180910390fd5b80600560008573ffffffffffffffffffffffffffffffffffffffff1673ffffffffffffffffffffffffffffffffffffffff16815260200190815260200160002060008473ffffffffffffffffffffffffffffffffffffffff1673ffffffffffffffffffffffffffffffffffffffff16815260200190815260200160002060006101000a81548160ff0219169083151502179055508173ffffffffffffffffffffffffffffffffffffffff168373ffffffffffffffffffffffffffffffffffffffff167f17307eab39ab6107e8899845ad3d59bd9653f200f220920489ca2b5937696c31836040516113f49190612101565b60405180910390a3505050565b61140c848484610ee9565b611418848484846118e2565b611457576040517f08c379a000000000000000000000000000000000000000000000000000000000815260040161144e9061213e565b60405180910390fd5b50505050565b60606008805461146c90612543565b80601f016020809104026020016040519081016040528092919081815260200182805461149890612543565b80156114e55780601f106114ba576101008083540402835291602001916114e5565b820191906000526020600020905b8154815290600101906020018083116114c857829003601f168201915b5050505050905090565b60606000821415611537576040518060400160405280600181526020017f30000000000000000000000000000000000000000000000000000000000000008152509050611697565b600082905060005b60008214611569578080611552906125a6565b915050600a826115629190612428565b915061153f565b60008167ffffffffffffffff8111156115ab577f4e487b7100000000000000000000000000000000000000000000000000000000600052604160045260246000fd5b6040519080825280601f01601f1916602001820160405280156115dd5781602001600182028036833780820191505090505b5090505b60008514611690576001826115f69190612459565b9150600a8561160591906125ef565b603061161191906123d2565b60f81b81838151811061164d577f4e487b7100000000000000000000000000000000000000000000000000000000600052603260045260246000fd5b60200101907effffffffffffffffffffffffffffffffffffffffffffffffffffffffffffff1916908160001a905350600a856116899190612428565b94506115e1565b8093505050505b919050565b60008073ffffffffffffffffffffffffffffffffffffffff166002600084815260200190815260200160002060009054906101000a900473ffffffffffffffffffffffffffffffffffffffff1673ffffffffffffffffffffffffffffffffffffffff1614159050919050565b600073ffffffffffffffffffffffffffffffffffffffff168273ffffffffffffffffffffffffffffffffffffffff161415611778576040517f08c379a000000000000000000000000000000000000000000000000000000000815260040161176f9061225e565b60405180910390fd5b6117818161169c565b156117c1576040517f08c379a00000000000000000000000000000000000000000000000000000000081526004016117b8906121be565b60405180910390fd5b6117cd60008383611a79565b6001600360008473ffffffffffffffffffffffffffffffffffffffff1673ffffffffffffffffffffffffffffffffffffffff168152602001908152602001600020600082825461181d91906123d2565b92505081905550816002600083815260200190815260200160002060006101000a81548173ffffffffffffffffffffffffffffffffffffffff021916908373ffffffffffffffffffffffffffffffffffffffff160217905550808273ffffffffffffffffffffffffffffffffffffffff16600073ffffffffffffffffffffffffffffffffffffffff167fddf252ad1be2c89b69c2b068fc378daa952ba7f163c4a11628f55a4df523b3ef60405160405180910390a46118de60008383611a7e565b5050565b60006119038473ffffffffffffffffffffffffffffffffffffffff16611a83565b15611a6c578373ffffffffffffffffffffffffffffffffffffffff1663150b7a0261192c610c92565b8786866040518563ffffffff1660e01b815260040161194e94939291906120b5565b602060405180830381600087803b15801561196857600080fd5b505af192505050801561199957506040513d601f19601f820116820180604052508101906119969190611d47565b60015b611a1c573d80600081146119c9576040519150601f19603f3d011682016040523d82523d6000602084013e6119ce565b606091505b50600081511415611a14576040517f08c379a0000000000000000000000000000000000000000000000000000000008152600401611a0b9061213e565b60405180910390fd5b805181602001fd5b63150b7a0260e01b7bffffffffffffffffffffffffffffffffffffffffffffffffffffffff1916817bffffffffffffffffffffffffffffffffffffffffffffffffffffffff191614915050611a71565b600190505b949350505050565b505050565b505050565b6000808273ffffffffffffffffffffffffffffffffffffffff163b119050919050565b6000611ab9611ab48461235e565b612339565b905082815260208101848484011115611ad157600080fd5b611adc848285612501565b509392505050565b600081359050611af381612a84565b92915050565b600081359050611b0881612a9b565b92915050565b600081359050611b1d81612ab2565b92915050565b600081519050611b3281612ab2565b92915050565b600082601f830112611b4957600080fd5b8135611b59848260208601611aa6565b91505092915050565b600081359050611b7181612ac9565b92915050565b600060208284031215611b8957600080fd5b6000611b9784828501611ae4565b91505092915050565b60008060408385031215611bb357600080fd5b6000611bc185828601611ae4565b9250506020611bd285828601611ae4565b9150509250929050565b600080600060608486031215611bf157600080fd5b6000611bff86828701611ae4565b9350506020611c1086828701611ae4565b9250506040611c2186828701611b62565b9150509250925092565b60008060008060808587031215611c4157600080fd5b6000611c4f87828801611ae4565b9450506020611c6087828801611ae4565b9350506040611c7187828801611b62565b925050606085013567ffffffffffffffff811115611c8e57600080fd5b611c9a87828801611b38565b91505092959194509250565b60008060408385031215611cb957600080fd5b6000611cc785828601611ae4565b9250506020611cd885828601611af9565b9150509250929050565b60008060408385031215611cf557600080fd5b6000611d0385828601611ae4565b9250506020611d1485828601611b62565b9150509250929050565b600060208284031215611d3057600080fd5b6000611d3e84828501611b0e565b91505092915050565b600060208284031215611d5957600080fd5b6000611d6784828501611b23565b91505092915050565b600060208284031215611d8257600080fd5b6000611d9084828501611b62565b91505092915050565b611da28161248d565b82525050565b611db18161249f565b82525050565b6000611dc28261238f565b611dcc81856123a5565b9350611ddc818560208601612510565b611de5816126dc565b840191505092915050565b6000611dfb8261239a565b611e0581856123b6565b9350611e15818560208601612510565b611e1e816126dc565b840191505092915050565b6000611e348261239a565b611e3e81856123c7565b9350611e4e818560208601612510565b80840191505092915050565b6000611e676032836123b6565b9150611e72826126ed565b604082019050919050565b6000611e8a6008836123b6565b9150611e958261273c565b602082019050919050565b6000611ead6026836123b6565b9150611eb882612765565b604082019050919050565b6000611ed06025836123b6565b9150611edb826127b4565b604082019050919050565b6000611ef3601c836123b6565b9150611efe82612803565b602082019050919050565b6000611f166024836123b6565b9150611f218261282c565b604082019050919050565b6000611f396019836123b6565b9150611f448261287b565b602082019050919050565b6000611f5c6029836123b6565b9150611f67826128a4565b604082019050919050565b6000611f7f603e836123b6565b9150611f8a826128f3565b604082019050919050565b6000611fa26020836123b6565b9150611fad82612942565b602082019050919050565b6000611fc5600e836123b6565b9150611fd08261296b565b602082019050919050565b6000611fe86020836123b6565b9150611ff382612994565b602082019050919050565b600061200b6018836123b6565b9150612016826129bd565b602082019050919050565b600061202e6021836123b6565b9150612039826129e6565b604082019050919050565b6000612051602e836123b6565b915061205c82612a35565b604082019050919050565b612070816124f7565b82525050565b60006120828285611e29565b915061208e8284611e29565b91508190509392505050565b60006020820190506120af6000830184611d99565b92915050565b60006080820190506120ca6000830187611d99565b6120d76020830186611d99565b6120e46040830185612067565b81810360608301526120f68184611db7565b905095945050505050565b60006020820190506121166000830184611da8565b92915050565b600060208201905081810360008301526121368184611df0565b905092915050565b6000602082019050818103600083015261215781611e5a565b9050919050565b6000602082019050818103600083015261217781611e7d565b9050919050565b6000602082019050818103600083015261219781611ea0565b9050919050565b600060208201905081810360008301526121b781611ec3565b9050919050565b600060208201905081810360008301526121d781611ee6565b9050919050565b600060208201905081810360008301526121f781611f09565b9050919050565b6000602082019050818103600083015261221781611f2c565b9050919050565b6000602082019050818103600083015261223781611f4f565b9050919050565b6000602082019050818103600083015261225781611f72565b9050919050565b6000602082019050818103600083015261227781611f95565b9050919050565b6000602082019050818103600083015261229781611fb8565b9050919050565b600060208201905081810360008301526122b781611fdb565b9050919050565b600060208201905081810360008301526122d781611ffe565b9050919050565b600060208201905081810360008301526122f781612021565b9050919050565b6000602082019050818103600083015261231781612044565b9050919050565b60006020820190506123336000830184612067565b92915050565b6000612343612354565b905061234f8282612575565b919050565b6000604051905090565b600067ffffffffffffffff821115612379576123786126ad565b5b612382826126dc565b9050602081019050919050565b600081519050919050565b600081519050919050565b600082825260208201905092915050565b600082825260208201905092915050565b600081905092915050565b60006123dd826124f7565b91506123e8836124f7565b9250827fffffffffffffffffffffffffffffffffffffffffffffffffffffffffffffffff0382111561241d5761241c612620565b5b828201905092915050565b6000612433826124f7565b915061243e836124f7565b92508261244e5761244d61264f565b5b828204905092915050565b6000612464826124f7565b915061246f836124f7565b92508282101561248257612481612620565b5b828203905092915050565b6000612498826124d7565b9050919050565b60008115159050919050565b60007fffffffff0000000000000000000000000000000000000000000000000000000082169050919050565b600073ffffffffffffffffffffffffffffffffffffffff82169050919050565b6000819050919050565b82818337600083830152505050565b60005b8381101561252e578082015181840152602081019050612513565b8381111561253d576000848401525b50505050565b6000600282049050600182168061255b57607f821691505b6020821081141561256f5761256e61267e565b5b50919050565b61257e826126dc565b810181811067ffffffffffffffff8211171561259d5761259c6126ad565b5b80604052505050565b60006125b1826124f7565b91507fffffffffffffffffffffffffffffffffffffffffffffffffffffffffffffffff8214156125e4576125e3612620565b5b600182019050919050565b60006125fa826124f7565b9150612605836124f7565b9250826126155761261461264f565b5b828206905092915050565b7f4e487b7100000000000000000000000000000000000000000000000000000000600052601160045260246000fd5b7f4e487b7100000000000000000000000000000000000000000000000000000000600052601260045260246000fd5b7f4e487b7100000000000000000000000000000000000000000000000000000000600052602260045260246000fd5b7f4e487b7100000000000000000000000000000000000000000000000000000000600052604160045260246000fd5b6000601f19601f8301169050919050565b7f4552433732313a207472616e7366657220746f206e6f6e20455243373231526560008201527f63656976657220696d706c656d656e7465720000000000000000000000000000602082015250565b7f536f6c64204f7574000000000000000000000000000000000000000000000000600082015250565b7f4f776e61626c653a206e6577206f776e657220697320746865207a65726f206160008201527f6464726573730000000000000000000000000000000000000000000000000000602082015250565b7f4552433732313a207472616e736665722066726f6d20696e636f72726563742060008201527f6f776e6572000000000000000000000000000000000000000000000000000000602082015250565b7f4552433732313a20746f6b656e20616c7265616479206d696e74656400000000600082015250565b7f4552433732313a207472616e7366657220746f20746865207a65726f2061646460008201527f7265737300000000000000000000000000000000000000000000000000000000602082015250565b7f4552433732313a20617070726f766520746f2063616c6c657200000000000000600082015250565b7f4552433732313a2061646472657373207a65726f206973206e6f74206120766160008201527f6c6964206f776e65720000000000000000000000000000000000000000000000602082015250565b7f4552433732313a20617070726f76652063616c6c6572206973206e6f7420746f60008201527f6b656e206f776e6572206e6f7220617070726f76656420666f7220616c6c0000602082015250565b7f4552433732313a206d696e7420746f20746865207a65726f2061646472657373600082015250565b7f4e6f7420656e6f75676820455448000000000000000000000000000000000000600082015250565b7f4f776e61626c653a2063616c6c6572206973206e6f7420746865206f776e6572600082015250565b7f4552433732313a20696e76616c696420746f6b656e2049440000000000000000600082015250565b7f4552433732313a20617070726f76616c20746f2063757272656e74206f776e6560008201527f7200000000000000000000000000000000000000000000000000000000000000602082015250565b7f4552433732313a2063616c6c6572206973206e6f7420746f6b656e206f776e6560008201527f72206e6f7220617070726f766564000000000000000000000000000000000000602082015250565b612a8d8161248d565b8114612a9857600080fd5b50565b612aa48161249f565b8114612aaf57600080fd5b50565b612abb816124ab565b8114612ac657600080fd5b50565b612ad2816124f7565b8114612add57600080fd5b5056fea26469706673582212206b124774ff3c0354542bc2d702fd0d877565e3291293cd67ccd0596c13e8e2b464736f6c63430008040033",
  "linkReferences": {},
  "deployedLinkReferences": {}
}